{
  "abi": [
    {
      "inputs": [],
      "stateMutability": "nonpayable",
      "type": "constructor"
    },
    {
      "anonymous": false,
      "inputs": [
        {
          "indexed": true,
          "internalType": "address",
          "name": "owner",
          "type": "address"
        },
        {
          "indexed": true,
          "internalType": "address",
          "name": "approved",
          "type": "address"
        },
        {
          "indexed": true,
          "internalType": "uint256",
          "name": "tokenId",
          "type": "uint256"
        }
      ],
      "name": "Approval",
      "type": "event"
    },
    {
      "anonymous": false,
      "inputs": [
        {
          "indexed": true,
          "internalType": "address",
          "name": "owner",
          "type": "address"
        },
        {
          "indexed": true,
          "internalType": "address",
          "name": "operator",
          "type": "address"
        },
        {
          "indexed": false,
          "internalType": "bool",
          "name": "approved",
          "type": "bool"
        }
      ],
      "name": "ApprovalForAll",
      "type": "event"
    },
    {
      "anonymous": false,
      "inputs": [
        {
          "indexed": true,
          "internalType": "address",
          "name": "from",
          "type": "address"
        },
        {
          "indexed": true,
          "internalType": "address",
          "name": "to",
          "type": "address"
        },
        {
          "indexed": true,
          "internalType": "uint256",
          "name": "tokenId",
          "type": "uint256"
        }
      ],
      "name": "Transfer",
      "type": "event"
    },
    {
      "inputs": [
        {
          "internalType": "address",
          "name": "to",
          "type": "address"
        },
        {
          "internalType": "uint256",
          "name": "tokenId",
          "type": "uint256"
        }
      ],
      "name": "approve",
      "outputs": [],
      "stateMutability": "nonpayable",
      "type": "function"
    },
    {
      "inputs": [
        {
          "internalType": "address",
          "name": "owner",
          "type": "address"
        }
      ],
      "name": "balanceOf",
      "outputs": [
        {
          "internalType": "uint256",
          "name": "",
          "type": "uint256"
        }
      ],
      "stateMutability": "view",
      "type": "function"
    },
    {
      "inputs": [
        {
          "internalType": "uint256",
          "name": "tokenId",
          "type": "uint256"
        }
      ],
      "name": "getApproved",
      "outputs": [
        {
          "internalType": "address",
          "name": "",
          "type": "address"
        }
      ],
      "stateMutability": "view",
      "type": "function"
    },
    {
      "inputs": [
        {
          "internalType": "address",
          "name": "owner",
          "type": "address"
        },
        {
          "internalType": "address",
          "name": "operator",
          "type": "address"
        }
      ],
      "name": "isApprovedForAll",
      "outputs": [
        {
          "internalType": "bool",
          "name": "",
          "type": "bool"
        }
      ],
      "stateMutability": "view",
      "type": "function"
    },
    {
      "inputs": [
        {
          "internalType": "string",
          "name": "tokenURI",
          "type": "string"
        }
      ],
      "name": "mint",
      "outputs": [
        {
          "internalType": "uint256",
          "name": "",
          "type": "uint256"
        }
      ],
      "stateMutability": "nonpayable",
      "type": "function"
    },
    {
      "inputs": [],
      "name": "name",
      "outputs": [
        {
          "internalType": "string",
          "name": "",
          "type": "string"
        }
      ],
      "stateMutability": "view",
      "type": "function"
    },
    {
      "inputs": [
        {
          "internalType": "uint256",
          "name": "tokenId",
          "type": "uint256"
        }
      ],
      "name": "ownerOf",
      "outputs": [
        {
          "internalType": "address",
          "name": "",
          "type": "address"
        }
      ],
      "stateMutability": "view",
      "type": "function"
    },
    {
      "inputs": [
        {
          "internalType": "address",
          "name": "from",
          "type": "address"
        },
        {
          "internalType": "address",
          "name": "to",
          "type": "address"
        },
        {
          "internalType": "uint256",
          "name": "tokenId",
          "type": "uint256"
        }
      ],
      "name": "safeTransferFrom",
      "outputs": [],
      "stateMutability": "nonpayable",
      "type": "function"
    },
    {
      "inputs": [
        {
          "internalType": "address",
          "name": "from",
          "type": "address"
        },
        {
          "internalType": "address",
          "name": "to",
          "type": "address"
        },
        {
          "internalType": "uint256",
          "name": "tokenId",
          "type": "uint256"
        },
        {
          "internalType": "bytes",
          "name": "data",
          "type": "bytes"
        }
      ],
      "name": "safeTransferFrom",
      "outputs": [],
      "stateMutability": "nonpayable",
      "type": "function"
    },
    {
      "inputs": [
        {
          "internalType": "address",
          "name": "operator",
          "type": "address"
        },
        {
          "internalType": "bool",
          "name": "approved",
          "type": "bool"
        }
      ],
      "name": "setApprovalForAll",
      "outputs": [],
      "stateMutability": "nonpayable",
      "type": "function"
    },
    {
      "inputs": [
        {
          "internalType": "bytes4",
          "name": "interfaceId",
          "type": "bytes4"
        }
      ],
      "name": "supportsInterface",
      "outputs": [
        {
          "internalType": "bool",
          "name": "",
          "type": "bool"
        }
      ],
      "stateMutability": "view",
      "type": "function"
    },
    {
      "inputs": [],
      "name": "symbol",
      "outputs": [
        {
          "internalType": "string",
          "name": "",
          "type": "string"
        }
      ],
      "stateMutability": "view",
      "type": "function"
    },
    {
      "inputs": [
        {
          "internalType": "uint256",
          "name": "tokenId",
          "type": "uint256"
        }
      ],
      "name": "tokenURI",
      "outputs": [
        {
          "internalType": "string",
          "name": "",
          "type": "string"
        }
      ],
      "stateMutability": "view",
      "type": "function"
    },
    {
      "inputs": [],
      "name": "totalSupply",
      "outputs": [
        {
          "internalType": "uint256",
          "name": "",
          "type": "uint256"
        }
      ],
      "stateMutability": "view",
      "type": "function"
    },
    {
      "inputs": [
        {
          "internalType": "address",
          "name": "from",
          "type": "address"
        },
        {
          "internalType": "address",
          "name": "to",
          "type": "address"
        },
        {
          "internalType": "uint256",
          "name": "tokenId",
          "type": "uint256"
        }
      ],
      "name": "transferFrom",
      "outputs": [],
      "stateMutability": "nonpayable",
      "type": "function"
    }
  ],
  "bytecode": {
    "object": "0x60806040523480156200001157600080fd5b506040518060400160405280600b81526020016a5265616c2045737461746560a81b815250604051806040016040528060048152602001631491505360e21b815250816000908162000064919062000121565b50600162000073828262000121565b505050620001ed565b634e487b7160e01b600052604160045260246000fd5b600181811c90821680620000a757607f821691505b602082108103620000c857634e487b7160e01b600052602260045260246000fd5b50919050565b601f8211156200011c57600081815260208120601f850160051c81016020861015620000f75750805b601f850160051c820191505b81811015620001185782815560010162000103565b5050505b505050565b81516001600160401b038111156200013d576200013d6200007c565b62000155816200014e845462000092565b84620000ce565b602080601f8311600181146200018d5760008415620001745750858301515b600019600386901b1c1916600185901b17855562000118565b600085815260208120601f198616915b82811015620001be578886015182559484019460019091019084016200019d565b5085821015620001dd5787850151600019600388901b60f8161c191681555b5050505050600190811b01905550565b61160f80620001fd6000396000f3fe608060405234801561001057600080fd5b50600436106100f55760003560e01c80636352211e11610097578063b88d4fde11610066578063b88d4fde146101f4578063c87b56dd14610207578063d85d3d271461021a578063e985e9c51461022d57600080fd5b80636352211e146101b357806370a08231146101c657806395d89b41146101d9578063a22cb465146101e157600080fd5b8063095ea7b3116100d3578063095ea7b31461016257806318160ddd1461017757806323b872dd1461018d57806342842e0e146101a057600080fd5b806301ffc9a7146100fa57806306fdde0314610122578063081812fc14610137575b600080fd5b61010d61010836600461102e565b610269565b60405190151581526020015b60405180910390f35b61012a6102bb565b604051610119919061109b565b61014a6101453660046110ae565b61034d565b6040516001600160a01b039091168152602001610119565b6101756101703660046110e3565b610374565b005b61017f61048e565b604051908152602001610119565b61017561019b36600461110d565b61049e565b6101756101ae36600461110d565b6104cf565b61014a6101c13660046110ae565b6104ea565b61017f6101d4366004611149565b61054a565b61012a6105d0565b6101756101ef366004611164565b6105df565b61017561020236600461122c565b6105ee565b61012a6102153660046110ae565b610626565b61017f6102283660046112a8565b610736565b61010d61023b3660046112f1565b6001600160a01b03918216600090815260056020908152604080832093909416825291909152205460ff1690565b60006001600160e01b031982166380ac58cd60e01b148061029a57506001600160e01b03198216635b5e139f60e01b145b806102b557506301ffc9a760e01b6001600160e01b03198316145b92915050565b6060600080546102ca90611324565b80601f01602080910402602001604051908101604052809291908181526020018280546102f690611324565b80156103435780601f1061031857610100808354040283529160200191610343565b820191906000526020600020905b81548152906001019060200180831161032657829003601f168201915b5050505050905090565b600061035882610767565b506000908152600460205260409020546001600160a01b031690565b600061037f826104ea565b9050806001600160a01b0316836001600160a01b0316036103f15760405162461bcd60e51b815260206004820152602160248201527f4552433732313a20617070726f76616c20746f2063757272656e74206f776e656044820152603960f91b60648201526084015b60405180910390fd5b336001600160a01b038216148061040d575061040d813361023b565b61047f5760405162461bcd60e51b815260206004820152603d60248201527f4552433732313a20617070726f76652063616c6c6572206973206e6f7420746f60448201527f6b656e206f776e6572206f7220617070726f76656420666f7220616c6c00000060648201526084016103e8565b61048983836107c9565b505050565b600061049960075490565b905090565b6104a83382610837565b6104c45760405162461bcd60e51b81526004016103e89061135e565b6104898383836108b5565b610489838383604051806020016040528060008152506105ee565b6000818152600260205260408120546001600160a01b0316806102b55760405162461bcd60e51b8152602060048201526018602482015277115490cdcc8c4e881a5b9d985b1a59081d1bdad95b88125160421b60448201526064016103e8565b60006001600160a01b0382166105b45760405162461bcd60e51b815260206004820152602960248201527f4552433732313a2061646472657373207a65726f206973206e6f7420612076616044820152683634b21037bbb732b960b91b60648201526084016103e8565b506001600160a01b031660009081526003602052604090205490565b6060600180546102ca90611324565b6105ea338383610a19565b5050565b6105f83383610837565b6106145760405162461bcd60e51b81526004016103e89061135e565b61062084848484610ae7565b50505050565b606061063182610767565b6000828152600660205260408120805461064a90611324565b80601f016020809104026020016040519081016040528092919081815260200182805461067690611324565b80156106c35780601f10610698576101008083540402835291602001916106c3565b820191906000526020600020905b8154815290600101906020018083116106a657829003601f168201915b5050505050905060006106e160408051602081019091526000815290565b905080516000036106f3575092915050565b81511561072557808260405160200161070d9291906113ab565b60405160208183030381529060405292505050919050565b61072e84610b1a565b949350505050565b6000610746600780546001019055565b600061075160075490565b905061075d3382610b8e565b6102b58184610d19565b6000818152600260205260409020546001600160a01b03166107c65760405162461bcd60e51b8152602060048201526018602482015277115490cdcc8c4e881a5b9d985b1a59081d1bdad95b88125160421b60448201526064016103e8565b50565b600081815260046020526040902080546001600160a01b0319166001600160a01b03841690811790915581906107fe826104ea565b6001600160a01b03167f8c5be1e5ebec7d5bd14f71427d1e84f3dd0314c0f7b2291e5b200ac8c7c3b92560405160405180910390a45050565b600080610843836104ea565b9050806001600160a01b0316846001600160a01b0316148061088a57506001600160a01b0380821660009081526005602090815260408083209388168352929052205460ff165b8061072e5750836001600160a01b03166108a38461034d565b6001600160a01b031614949350505050565b826001600160a01b03166108c8826104ea565b6001600160a01b0316146108ee5760405162461bcd60e51b81526004016103e8906113da565b6001600160a01b0382166109505760405162461bcd60e51b8152602060048201526024808201527f4552433732313a207472616e7366657220746f20746865207a65726f206164646044820152637265737360e01b60648201526084016103e8565b826001600160a01b0316610963826104ea565b6001600160a01b0316146109895760405162461bcd60e51b81526004016103e8906113da565b600081815260046020908152604080832080546001600160a01b03199081169091556001600160a01b0387811680865260038552838620805460001901905590871680865283862080546001019055868652600290945282852080549092168417909155905184937fddf252ad1be2c89b69c2b068fc378daa952ba7f163c4a11628f55a4df523b3ef91a4505050565b816001600160a01b0316836001600160a01b031603610a7a5760405162461bcd60e51b815260206004820152601960248201527f4552433732313a20617070726f766520746f2063616c6c65720000000000000060448201526064016103e8565b6001600160a01b03838116600081815260056020908152604080832094871680845294825291829020805460ff191686151590811790915591519182527f17307eab39ab6107e8899845ad3d59bd9653f200f220920489ca2b5937696c31910160405180910390a3505050565b610af28484846108b5565b610afe84848484610dac565b6106205760405162461bcd60e51b81526004016103e89061141f565b6060610b2582610767565b6000610b3c60408051602081019091526000815290565b90506000815111610b5c5760405180602001604052806000815250610b87565b80610b6684610ead565b604051602001610b779291906113ab565b6040516020818303038152906040525b9392505050565b6001600160a01b038216610be45760405162461bcd60e51b815260206004820181905260248201527f4552433732313a206d696e7420746f20746865207a65726f206164647265737360448201526064016103e8565b6000818152600260205260409020546001600160a01b031615610c495760405162461bcd60e51b815260206004820152601c60248201527f4552433732313a20746f6b656e20616c7265616479206d696e7465640000000060448201526064016103e8565b6000818152600260205260409020546001600160a01b031615610cae5760405162461bcd60e51b815260206004820152601c60248201527f4552433732313a20746f6b656e20616c7265616479206d696e7465640000000060448201526064016103e8565b6001600160a01b038216600081815260036020908152604080832080546001019055848352600290915280822080546001600160a01b0319168417905551839291907fddf252ad1be2c89b69c2b068fc378daa952ba7f163c4a11628f55a4df523b3ef908290a45050565b6000828152600260205260409020546001600160a01b0316610d945760405162461bcd60e51b815260206004820152602e60248201527f45524337323155524953746f726167653a2055524920736574206f66206e6f6e60448201526d32bc34b9ba32b73a103a37b5b2b760911b60648201526084016103e8565b600082815260066020526040902061048982826114bf565b60006001600160a01b0384163b15610ea257604051630a85bd0160e11b81526001600160a01b0385169063150b7a0290610df090339089908890889060040161157f565b6020604051808303816000875af1925050508015610e2b575060408051601f3d908101601f19168201909252610e28918101906115bc565b60015b610e88573d808015610e59576040519150601f19603f3d011682016040523d82523d6000602084013e610e5e565b606091505b508051600003610e805760405162461bcd60e51b81526004016103e89061141f565b805181602001fd5b6001600160e01b031916630a85bd0160e11b14905061072e565b506001949350505050565b60606000610eba83610f40565b600101905060008167ffffffffffffffff811115610eda57610eda6111a0565b6040519080825280601f01601f191660200182016040528015610f04576020820181803683370190505b5090508181016020015b600019016f181899199a1a9b1b9c1cb0b131b232b360811b600a86061a8153600a8504945084610f0e57509392505050565b60008072184f03e93ff9f4daa797ed6e38ed64bf6a1f0160401b8310610f7f5772184f03e93ff9f4daa797ed6e38ed64bf6a1f0160401b830492506040015b6d04ee2d6d415b85acef81000000008310610fab576d04ee2d6d415b85acef8100000000830492506020015b662386f26fc100008310610fc957662386f26fc10000830492506010015b6305f5e1008310610fe1576305f5e100830492506008015b6127108310610ff557612710830492506004015b60648310611007576064830492506002015b600a83106102b55760010192915050565b6001600160e01b0319811681146107c657600080fd5b60006020828403121561104057600080fd5b8135610b8781611018565b60005b8381101561106657818101518382015260200161104e565b50506000910152565b6000815180845261108781602086016020860161104b565b601f01601f19169290920160200192915050565b602081526000610b87602083018461106f565b6000602082840312156110c057600080fd5b5035919050565b80356001600160a01b03811681146110de57600080fd5b919050565b600080604083850312156110f657600080fd5b6110ff836110c7565b946020939093013593505050565b60008060006060848603121561112257600080fd5b61112b846110c7565b9250611139602085016110c7565b9150604084013590509250925092565b60006020828403121561115b57600080fd5b610b87826110c7565b6000806040838503121561117757600080fd5b611180836110c7565b91506020830135801515811461119557600080fd5b809150509250929050565b634e487b7160e01b600052604160045260246000fd5b600067ffffffffffffffff808411156111d1576111d16111a0565b604051601f8501601f19908116603f011681019082821181831017156111f9576111f96111a0565b8160405280935085815286868601111561121257600080fd5b858560208301376000602087830101525050509392505050565b6000806000806080858703121561124257600080fd5b61124b856110c7565b9350611259602086016110c7565b925060408501359150606085013567ffffffffffffffff81111561127c57600080fd5b8501601f8101871361128d57600080fd5b61129c878235602084016111b6565b91505092959194509250565b6000602082840312156112ba57600080fd5b813567ffffffffffffffff8111156112d157600080fd5b8201601f810184136112e257600080fd5b61072e848235602084016111b6565b6000806040838503121561130457600080fd5b61130d836110c7565b915061131b602084016110c7565b90509250929050565b600181811c9082168061133857607f821691505b60208210810361135857634e487b7160e01b600052602260045260246000fd5b50919050565b6020808252602d908201527f4552433732313a2063616c6c6572206973206e6f7420746f6b656e206f776e6560408201526c1c881bdc88185c1c1c9bdd9959609a1b606082015260800190565b600083516113bd81846020880161104b565b8351908301906113d181836020880161104b565b01949350505050565b60208082526025908201527f4552433732313a207472616e736665722066726f6d20696e636f72726563742060408201526437bbb732b960d91b606082015260800190565b60208082526032908201527f4552433732313a207472616e7366657220746f206e6f6e20455243373231526560408201527131b2b4bb32b91034b6b83632b6b2b73a32b960711b606082015260800190565b601f82111561048957600081815260208120601f850160051c810160208610156114985750805b601f850160051c820191505b818110156114b7578281556001016114a4565b505050505050565b815167ffffffffffffffff8111156114d9576114d96111a0565b6114ed816114e78454611324565b84611471565b602080601f831160018114611522576000841561150a5750858301515b600019600386901b1c1916600185901b1785556114b7565b600085815260208120601f198616915b8281101561155157888601518255948401946001909101908401611532565b508582101561156f5787850151600019600388901b60f8161c191681555b5050505050600190811b01905550565b6001600160a01b03858116825284166020820152604081018390526080606082018190526000906115b29083018461106f565b9695505050505050565b6000602082840312156115ce57600080fd5b8151610b878161101856fea2646970667358221220beb839f0ff11a61e27a093d797390fd3fe884cf76a473cdf01c4c757688a0ca564736f6c63430008130033",
    "linkReferences": {}
  },
  "methodIdentifiers": {
    "approve(address,uint256)": "095ea7b3",
    "balanceOf(address)": "70a08231",
    "getApproved(uint256)": "081812fc",
    "isApprovedForAll(address,address)": "e985e9c5",
    "mint(string)": "d85d3d27",
    "name()": "06fdde03",
    "ownerOf(uint256)": "6352211e",
    "safeTransferFrom(address,address,uint256)": "42842e0e",
    "safeTransferFrom(address,address,uint256,bytes)": "b88d4fde",
    "setApprovalForAll(address,bool)": "a22cb465",
    "supportsInterface(bytes4)": "01ffc9a7",
    "symbol()": "95d89b41",
    "tokenURI(uint256)": "c87b56dd",
    "totalSupply()": "18160ddd",
    "transferFrom(address,address,uint256)": "23b872dd"
  },
  "id": 12
}