{
  "abi": [
    {
      "inputs": [
        {
          "internalType": "address",
          "name": "_lender",
          "type": "address"
        },
        {
          "internalType": "address",
          "name": "_seller",
          "type": "address"
        },
        {
          "internalType": "address",
          "name": "_buyer",
          "type": "address"
        },
        {
          "internalType": "uint256",
          "name": "_deposit",
          "type": "uint256"
        },
        {
          "internalType": "bytes32",
          "name": "_tokenURI",
          "type": "bytes32"
        },
        {
          "internalType": "uint256",
          "name": "_assetPrice",
          "type": "uint256"
        },
        {
          "internalType": "uint256",
          "name": "_tokenId",
          "type": "uint256"
        },
        {
          "internalType": "address",
          "name": "nftAddress",
          "type": "address"
        }
      ],
      "stateMutability": "nonpayable",
      "type": "constructor"
    },
    {
      "inputs": [],
      "name": "Escrow__NotBuyer",
      "type": "error"
    },
    {
      "inputs": [],
      "name": "Escrow__NotParticipant",
      "type": "error"
    },
    {
      "inputs": [],
      "name": "Escrow__NotSeller",
      "type": "error"
    },
    {
      "inputs": [],
      "name": "Escrow__SaleNotApproved",
      "type": "error"
    },
    {
      "anonymous": false,
      "inputs": [
        {
          "indexed": true,
          "internalType": "address",
          "name": "depositer",
          "type": "address"
        },
        {
          "indexed": false,
          "internalType": "uint256",
          "name": "weiAmount",
          "type": "uint256"
        }
      ],
      "name": "Deposited",
      "type": "event"
    },
    {
      "anonymous": false,
      "inputs": [
        {
          "indexed": true,
          "internalType": "address",
          "name": "seller",
          "type": "address"
        },
        {
          "indexed": true,
          "internalType": "address",
          "name": "buyer",
          "type": "address"
        }
      ],
      "name": "NftSent",
      "type": "event"
    },
    {
      "anonymous": false,
      "inputs": [
        {
          "indexed": true,
          "internalType": "address",
          "name": "withdrawer",
          "type": "address"
        },
        {
          "indexed": false,
          "internalType": "uint256",
          "name": "weiAmount",
          "type": "uint256"
        }
      ],
      "name": "Withdrawal",
      "type": "event"
    },
    {
      "inputs": [],
      "name": "ViewAmountDeposited",
      "outputs": [
        {
          "internalType": "uint256",
          "name": "",
          "type": "uint256"
        }
      ],
      "stateMutability": "view",
      "type": "function"
    },
    {
      "inputs": [],
      "name": "ViewAppraiser",
      "outputs": [
        {
          "internalType": "address",
          "name": "",
          "type": "address"
        }
      ],
      "stateMutability": "view",
      "type": "function"
    },
    {
      "inputs": [],
      "name": "ViewBuyer",
      "outputs": [
        {
          "internalType": "address",
          "name": "",
          "type": "address"
        }
      ],
      "stateMutability": "view",
      "type": "function"
    },
    {
      "inputs": [],
      "name": "ViewDownPayment",
      "outputs": [
        {
          "internalType": "uint256",
          "name": "",
          "type": "uint256"
        }
      ],
      "stateMutability": "view",
      "type": "function"
    },
    {
      "inputs": [],
      "name": "ViewLender",
      "outputs": [
        {
          "internalType": "address",
          "name": "",
          "type": "address"
        }
      ],
      "stateMutability": "view",
      "type": "function"
    },
    {
      "inputs": [],
      "name": "ViewSeller",
      "outputs": [
        {
          "internalType": "address",
          "name": "",
          "type": "address"
        }
      ],
      "stateMutability": "view",
      "type": "function"
    },
    {
      "inputs": [],
      "name": "amountDeposited",
      "outputs": [
        {
          "internalType": "uint256",
          "name": "",
          "type": "uint256"
        }
      ],
      "stateMutability": "view",
      "type": "function"
    },
    {
      "inputs": [],
      "name": "appraiseProperty",
      "outputs": [],
      "stateMutability": "nonpayable",
      "type": "function"
    },
    {
      "inputs": [],
      "name": "appraised",
      "outputs": [
        {
          "internalType": "bool",
          "name": "",
          "type": "bool"
        }
      ],
      "stateMutability": "view",
      "type": "function"
    },
    {
      "inputs": [],
      "name": "appraiser",
      "outputs": [
        {
          "internalType": "address",
          "name": "",
          "type": "address"
        }
      ],
      "stateMutability": "view",
      "type": "function"
    },
    {
      "inputs": [],
      "name": "cancelSale",
      "outputs": [],
      "stateMutability": "nonpayable",
      "type": "function"
    },
    {
      "inputs": [],
      "name": "depositDownPayment",
      "outputs": [],
      "stateMutability": "payable",
      "type": "function"
    },
    {
      "inputs": [],
      "name": "executeSale",
      "outputs": [],
      "stateMutability": "nonpayable",
      "type": "function"
    },
    {
      "inputs": [],
      "name": "fullyFunded",
      "outputs": [],
      "stateMutability": "view",
      "type": "function"
    },
    {
      "inputs": [],
      "name": "isFullyFunded",
      "outputs": [
        {
          "internalType": "bool",
          "name": "",
          "type": "bool"
        }
      ],
      "stateMutability": "view",
      "type": "function"
    },
    {
      "inputs": [],
      "name": "lenderDeposit",
      "outputs": [],
      "stateMutability": "payable",
      "type": "function"
    },
    {
      "inputs": [],
      "name": "saleState",
      "outputs": [
        {
          "internalType": "enum Escrow.State",
          "name": "",
          "type": "uint8"
        }
      ],
      "stateMutability": "view",
      "type": "function"
    },
    {
      "inputs": [],
      "name": "viewAssetPrice",
      "outputs": [
        {
          "internalType": "uint256",
          "name": "",
          "type": "uint256"
        }
      ],
      "stateMutability": "view",
      "type": "function"
    },
    {
      "inputs": [],
      "name": "viewNftAddress",
      "outputs": [
        {
          "internalType": "address",
          "name": "",
          "type": "address"
        }
      ],
      "stateMutability": "view",
      "type": "function"
    },
    {
      "inputs": [],
      "name": "viewState",
      "outputs": [
        {
          "internalType": "enum Escrow.State",
          "name": "",
          "type": "uint8"
        }
      ],
      "stateMutability": "view",
      "type": "function"
    },
    {
      "inputs": [],
      "name": "viewTokenId",
      "outputs": [
        {
          "internalType": "uint256",
          "name": "",
          "type": "uint256"
        }
      ],
      "stateMutability": "view",
      "type": "function"
    },
    {
      "inputs": [],
      "name": "viewTokenURI",
      "outputs": [
        {
          "internalType": "bytes32",
          "name": "",
          "type": "bytes32"
        }
      ],
      "stateMutability": "view",
      "type": "function"
    },
    {
      "stateMutability": "payable",
      "type": "receive"
    }
  ],
  "bytecode": {
    "object": "0x6101a06040526003805462ffffff191690553480156200001e57600080fd5b50604051620016a8380380620016a883398101604081905262000041916200009b565b6001600160a01b0397881660805295871660a05293861660c05260e09290925261012052610100526101405216610160819052610180526200011f565b80516001600160a01b03811681146200009657600080fd5b919050565b600080600080600080600080610100898b031215620000b957600080fd5b620000c4896200007e565b9750620000d460208a016200007e565b9650620000e460408a016200007e565b9550606089015194506080890151935060a0890151925060c089015191506200011060e08a016200007e565b90509295985092959890939650565b60805160a05160c05160e051610100516101205161014051610160516101805161141c6200028c60003960008181610ac801528181610b620152610ddd015260006103f30152600081816102c101528181610aa201528181610b310152610db7015260006101f9015260008181610426015281816108f501528181610c2401528181610cd70152610f5c01526000818161028e015281816105a8015281816106590152818161069301528181610806015281816108d4015281816110690152818161117d01526111b501526000818161025b01528181610505015281816106be01528181610a7a01528181610d8f01528181610e4401528181610fc50152818161103f01526111320152600081816103a0015281816109e701528181610bfa01528181610cfa01528181610d6701528181610e6901528181610ec00152610f9201526000818161033b0152818161072801528181610ff9015281816111ff01526112be015261141c6000f3fe6080604052600436106101395760003560e01c806387a91e49116100ab578063ada60c641161006f578063ada60c6414610391578063aebc34e4146103c4578063caa0a48f146103e4578063d4b4908414610417578063e7e104901461044a578063f86ccd411461045f57600080fd5b806387a91e49146103245780639ef3e7eb1461032c578063a63f10e31461035f578063aadb5bf114610367578063abdc824e1461037c57600080fd5b806321294bf6116100fd57806321294bf61461021d57806335cf2afe1461024c5780633c45dbfa1461027f5780635d50735d146102b2578063603f4d52146102e5578063801f39611461030c57600080fd5b806308249a281461015d578063110bc31f1461019457806316ae94b1146101b35780631b7ae7a9146101d357806320434279146101ea57600080fd5b36610158573460026000828254610150919061134c565b925050819055005b600080fd5b34801561016957600080fd5b506001546001600160a01b03165b6040516001600160a01b0390911681526020015b60405180910390f35b3480156101a057600080fd5b506002545b60405190815260200161018b565b3480156101bf57600080fd5b50600154610177906001600160a01b031681565b3480156101df57600080fd5b506101e8610475565b005b3480156101f657600080fd5b507f00000000000000000000000000000000000000000000000000000000000000006101a5565b34801561022957600080fd5b5060035461023c90610100900460ff1681565b604051901515815260200161018b565b34801561025857600080fd5b507f0000000000000000000000000000000000000000000000000000000000000000610177565b34801561028b57600080fd5b507f00000000000000000000000000000000000000000000000000000000000000006101a5565b3480156102be57600080fd5b507f00000000000000000000000000000000000000000000000000000000000000006101a5565b3480156102f157600080fd5b506003546102ff9060ff1681565b60405161018b919061137b565b34801561031857600080fd5b5060035460ff166102ff565b6101e86104fa565b34801561033857600080fd5b507f0000000000000000000000000000000000000000000000000000000000000000610177565b6101e861071d565b34801561037357600080fd5b506101e86109dc565b34801561038857600080fd5b506101e8610eb5565b34801561039d57600080fd5b507f0000000000000000000000000000000000000000000000000000000000000000610177565b3480156103d057600080fd5b5060035461023c9062010000900460ff1681565b3480156103f057600080fd5b507f0000000000000000000000000000000000000000000000000000000000000000610177565b34801561042357600080fd5b507f00000000000000000000000000000000000000000000000000000000000000006101a5565b34801561045657600080fd5b506101e8610f87565b34801561046b57600080fd5b506101a560025481565b6001546001600160a01b031633146104e95760405162461bcd60e51b815260206004820152602c60248201527f4f6e6c7920746865206170707261697365722063616e2061707072616973652060448201526b1d1a194818dbdb9d1c9858dd60a21b60648201526084015b60405180910390fd5b6003805461ff001916610100179055565b336001600160a01b037f000000000000000000000000000000000000000000000000000000000000000016146105435760405163c11393b160e01b815260040160405180910390fd5b600060035460ff16600281111561055c5761055c611365565b1461059c5760405162461bcd60e51b815260206004820152601060248201526f29b0b6329034b9903737ba1027b832b760811b60448201526064016104e0565b604051600090819030907f0000000000000000000000000000000000000000000000000000000000000000908381818185875af1925050503d8060008114610600576040519150601f19603f3d011682016040523d82523d6000602084013e610605565b606091505b5091509150816106575760405162461bcd60e51b815260206004820152601c60248201527f4661696c656420746f2073656e6420446f776e205061796d656e74210000000060448201526064016104e0565b7f000000000000000000000000000000000000000000000000000000000000000060026000828254610689919061134c565b90915550506040517f000000000000000000000000000000000000000000000000000000000000000081526001600160a01b037f000000000000000000000000000000000000000000000000000000000000000016907f2da466a7b24304f47e87fa2e1e5a81b9831ce54fec19055ce277ca2f39ba42c49060200160405180910390a250506003805460ff19166001179055565b336001600160a01b037f000000000000000000000000000000000000000000000000000000000000000016146107a85760405162461bcd60e51b815260206004820152602a60248201527f4465706f736974206d7573742062652066726f6d20746865206c656e646572276044820152697320616464726573732160b01b60648201526084016104e0565b600160035460ff1660028111156107c1576107c1611365565b146108045760405162461bcd60e51b81526020600482015260136024820152724e6f2073616c652069732070656e64696e672160681b60448201526064016104e0565b7f000000000000000000000000000000000000000000000000000000000000000060025410156108765760405162461bcd60e51b815260206004820152601f60248201527f446f776e205061796d656e7420686173206e6f74206265656e206d616465210060448201526064016104e0565b600354610100900460ff166108cd5760405162461bcd60e51b815260206004820181905260248201527f50726f706572747920686173206e6f74206265656e206170707261697365642160448201526064016104e0565b60006109197f00000000000000000000000000000000000000000000000000000000000000007f00000000000000000000000000000000000000000000000000000000000000006113a3565b9050600080306001600160a01b03168360405160006040518083038185875af1925050503d8060008114610969576040519150601f19603f3d011682016040523d82523d6000602084013e61096e565b606091505b5091509150816109c05760405162461bcd60e51b815260206004820152601c60248201527f546865204c656e6465722773206465706f736974206661696c6564210000000060448201526064016104e0565b82600260008282546109d2919061134c565b9091555050505050565b336001600160a01b037f00000000000000000000000000000000000000000000000000000000000000001614610a2557604051630465536f60e11b815260040160405180910390fd5b600354610100900460ff161580610a45575060035462010000900460ff16155b15610a635760405163e94c26e960e01b815260040160405180910390fd5b60405163095ea7b360e01b81526001600160a01b037f0000000000000000000000000000000000000000000000000000000000000000811660048301527f000000000000000000000000000000000000000000000000000000000000000060248301527f0000000000000000000000000000000000000000000000000000000000000000169063095ea7b390604401600060405180830381600087803b158015610b0c57600080fd5b505af1158015610b20573d6000803e3d6000fd5b505060405163020604bf60e21b81527f000000000000000000000000000000000000000000000000000000000000000060048201523092506001600160a01b037f000000000000000000000000000000000000000000000000000000000000000016915063081812fc90602401602060405180830381865afa158015610baa573d6000803e3d6000fd5b505050506040513d601f19601f82011682018060405250810190610bce91906113b6565b6001600160a01b031614610bf55760405163e94c26e960e01b815260040160405180910390fd5b6000807f00000000000000000000000000000000000000000000000000000000000000006001600160a01b03167f000000000000000000000000000000000000000000000000000000000000000060405160006040518083038185875af1925050503d8060008114610c83576040519150601f19603f3d011682016040523d82523d6000602084013e610c88565b606091505b509150915081610ccd5760405162461bcd60e51b815260206004820152601060248201526f5769746864726177204661696c65642160801b60448201526064016104e0565b60006002556040517f000000000000000000000000000000000000000000000000000000000000000081527f00000000000000000000000000000000000000000000000000000000000000006001600160a01b0316907f7fcf532c15f0a6db0bd6d0e038bea71d30d808c7d98cb3bf7268a95bf5081b659060200160405180910390a26040516323b872dd60e01b81526001600160a01b037f0000000000000000000000000000000000000000000000000000000000000000811660048301527f0000000000000000000000000000000000000000000000000000000000000000811660248301527f000000000000000000000000000000000000000000000000000000000000000060448301527f000000000000000000000000000000000000000000000000000000000000000016906323b872dd90606401600060405180830381600087803b158015610e2157600080fd5b505af1158015610e35573d6000803e3d6000fd5b50506040516001600160a01b037f0000000000000000000000000000000000000000000000000000000000000000811693507f00000000000000000000000000000000000000000000000000000000000000001691507f90f81f423d804b4d595d4b180adfe36610f3f05bf1114dc30d40763cca365cd790600090a35050565b336001600160a01b037f00000000000000000000000000000000000000000000000000000000000000001614610efe57604051630465536f60e11b815260040160405180910390fd5b600160035460ff166002811115610f1757610f17611365565b14610f5a5760405162461bcd60e51b81526020600482015260136024820152724e6f2073616c652069732070656e64696e672160681b60448201526064016104e0565b7f000000000000000000000000000000000000000000000000000000000000000060025410610f8557565b565b336001600160a01b037f000000000000000000000000000000000000000000000000000000000000000016141580610fe85750336001600160a01b037f00000000000000000000000000000000000000000000000000000000000000001614155b8061101c5750336001600160a01b037f00000000000000000000000000000000000000000000000000000000000000001614155b1561103a5760405163975fdfe560e01b815260040160405180910390fd5b6000807f00000000000000000000000000000000000000000000000000000000000000006001600160a01b03167f000000000000000000000000000000000000000000000000000000000000000060405160006040518083038185875af1925050503d80600081146110c8576040519150601f19603f3d011682016040523d82523d6000602084013e6110cd565b606091505b5091509150816111305760405162461bcd60e51b815260206004820152602860248201527f4661696c656420746f207769746864726177206275796572277320446f776e206044820152675061796d656e742160c01b60648201526084016104e0565b7f00000000000000000000000000000000000000000000000000000000000000006001600160a01b03167f7fcf532c15f0a6db0bd6d0e038bea71d30d808c7d98cb3bf7268a95bf5081b657f00000000000000000000000000000000000000000000000000000000000000006040516111ab91815260200190565b60405180910390a27f0000000000000000000000000000000000000000000000000000000000000000600260008282546111e591906113a3565b909155505060025460405160009182916001600160a01b037f00000000000000000000000000000000000000000000000000000000000000001691908381818185875af1925050503d8060008114611259576040519150601f19603f3d011682016040523d82523d6000602084013e61125e565b606091505b5091509150816112bc5760405162461bcd60e51b8152602060048201526024808201527f4661696c656420746f207769746864726177206c656e6465722773205061796d604482015263656e742160e01b60648201526084016104e0565b7f00000000000000000000000000000000000000000000000000000000000000006001600160a01b03167f7fcf532c15f0a6db0bd6d0e038bea71d30d808c7d98cb3bf7268a95bf5081b6560025460405161131991815260200190565b60405180910390a25050600060025550506003805460ff19169055565b634e487b7160e01b600052601160045260246000fd5b8082018082111561135f5761135f611336565b92915050565b634e487b7160e01b600052602160045260246000fd5b602081016003831061139d57634e487b7160e01b600052602160045260246000fd5b91905290565b8181038181111561135f5761135f611336565b6000602082840312156113c857600080fd5b81516001600160a01b03811681146113df57600080fd5b939250505056fea26469706673582212201d8d3d99788782d5219ded2f3f678ecd28d82d2a43961fc17b5ec71c3344321d64736f6c63430008130033",
    "linkReferences": {}
  },
  "methodIdentifiers": {
    "ViewAmountDeposited()": "110bc31f",
    "ViewAppraiser()": "08249a28",
    "ViewBuyer()": "35cf2afe",
    "ViewDownPayment()": "3c45dbfa",
    "ViewLender()": "9ef3e7eb",
    "ViewSeller()": "ada60c64",
    "amountDeposited()": "f86ccd41",
    "appraiseProperty()": "1b7ae7a9",
    "appraised()": "21294bf6",
    "appraiser()": "16ae94b1",
    "cancelSale()": "e7e10490",
    "depositDownPayment()": "87a91e49",
    "executeSale()": "aadb5bf1",
    "fullyFunded()": "abdc824e",
    "isFullyFunded()": "aebc34e4",
    "lenderDeposit()": "a63f10e3",
    "saleState()": "603f4d52",
    "viewAssetPrice()": "d4b49084",
    "viewNftAddress()": "caa0a48f",
    "viewState()": "801f3961",
    "viewTokenId()": "5d50735d",
    "viewTokenURI()": "20434279"
  },
  "id": 29
}