{
  "abi": [
    {
      "inputs": [],
      "name": "number",
      "outputs": [
        {
          "internalType": "uint8",
          "name": "",
          "type": "uint8"
        }
      ],
      "stateMutability": "pure",
      "type": "function"
    }
  ],
  "bytecode": {
    "object": "0x6080604052348015600f57600080fd5b50607780601d6000396000f3fe6080604052348015600f57600080fd5b506004361060285760003560e01c80638381f58a14602d575b600080fd5b604080516005815290519081900360200190f3fea26469706673582212202d9b4e0798e081784ed395eda7a2e28e01435bf63fb5e9fd78b8e60efefbd7b064736f6c63430008130033",
    "linkReferences": {}
  },
  "methodIdentifiers": {
    "number()": "8381f58a"
  },
  "id": 11
}